:020000040000fa
:080000000002040000000000f2
:020000040000fa
:040008004c030000a5
:020000040000fa
:04000c00620300008b
:020000040000fa
:04001000a403000045
:020000040000fa
:04001400780300006d
:020000040000fa
:040018008e03000053
:020000040000fa
:04001c00a403000039
:020000040000fa
:04002000a403000035
:020000040000fa
:04002400a403000031
:020000040000fa
:04002800a40300002d
:020000040000fa
:04002c00a403000029
:020000040000fa
:04003000a403000025
:020000040000fa
:040034003003000095
:020000040000fa
:04003800a40300001d
:020000040000fa
:04003c00a403000019
:020000040000fa
:04004000a403000015
:020000040000fa
:04004400a403000011
:020000040000fa
:04004800a40300000d
:020000040000fa
:04004c00a403000009
:020000040000fa
:04005000a403000005
:020000040000fa
:04005400a403000001
:020000040000fa
:04005800a4030000fd
:020000040000fa
:04005c00fa020000a4
:020000040000fa
:04006000a4030000f5
:020000040000fa
:04006400a4030000f1
:020000040000fa
:04006800a4030000ed
:020000040000fa
:04006c00a4030000e9
:020000040000fa
:04007000a4030000e5
:020000040000fa
:04007400a4030000e1
:020000040000fa
:04007800a4030000dd
:020000040000fa
:04007c00a4030000d9
:020000040000fa
:04008000a4030000d5
:020000040000fa
:04008400a4030000d1
:020000040000fa
:04008800a4030000cd
:020000040000fa
:04008c00a4030000c9
:020000040000fa
:04009000a4030000c5
:020000040000fa
:04009400a4030000c1
:020000040000fa
:04009800a4030000bd
:020000040000fa
:04009c00a4030000b9
:020000040000fa
:0400a000a4030000b5
:020000040000fa
:0400a400a4030000b1
:020000040000fa
:0400a800a4030000ad
:020000040000fa
:0400ac00a4030000a9
:020000040000fa
:0400b000a4030000a5
:020000040000fa
:0400b400a4030000a1
:020000040000fa
:0400b800a40300009d
:020000040000fa
:0400bc00a403000099
:020000040000fa
:0400c000a403000095
:020000040000fa
:0400c400a403000091
:020000040000fa
:0400c800a40300008d
:020000040000fa
:0400cc00a403000089
:020000040000fa
:0400d000a403000085
:020000040000fa
:0400d400a403000081
:020000040000fa
:0400d800a40300007d
:020000040000fa
:0400dc00a403000079
:020000040000fa
:0400e000a403000075
:020000040000fa
:0400e400a403000071
:020000040000fa
:0400e800a40300006d
:020000040000fa
:0400ec00a403000069
:020000040000fa
:0400f000a403000065
:020000040000fa
:0400f400a403000061
:020000040000fa
:0400f800a40300005d
:020000040000fa
:0400fc00a403000059
:020000040000fa
:04010000a403000054
:020000040000fa
:04010400a403000050
:020000040000fa
:04010800a40300004c
:020000040000fa
:04010c00a403000048
:020000040000fa
:04011000a403000044
:020000040000fa
:04011400a403000040
:020000040000fa
:04011800a40300003c
:020000040000fa
:04011c00a403000038
:020000040000fa
:04012000a403000034
:020000040000fa
:04012400a403000030
:020000040000fa
:04012800a40300002c
:020000040000fa
:04012c00a403000028
:020000040000fa
:04013000a403000024
:020000040000fa
:04013400a403000020
:020000040000fa
:04013800a40300001c
:020000040000fa
:04013c00a403000018
:020000040000fa
:04014000a403000014
:020000040000fa
:04014400a403000010
:020000040000fa
:04014800a40300000c
:020000040000fa
:04014c00a403000008
:020000040000fa
:04015000a403000004
:020000040000fa
:04015400a403000000
:020000040000fa
:04015800a4030000fc
:020000040000fa
:04015c00a4030000f8
:020000040000fa
:04016000a4030000f4
:020000040000fa
:04016400a4030000f0
:020000040000fa
:04016800a4030000ec
:020000040000fa
:04016c00a4030000e8
:020000040000fa
:04017000a4030000e4
:020000040000fa
:04017400a4030000e0
:020000040000fa
:04017800a4030000dc
:020000040000fa
:04017c00a4030000d8
:020000040000fa
:04018000a4030000d4
:020000040000fa
:04018400a4030000d0
:020000040000fa
:04018800a4030000cc
:020000040000fa
:04018c00a4030000c8
:020000040000fa
:04019000a4030000c4
:020000040000fa
:04019400a4030000c0
:020000040000fa
:04019800a4030000bc
:020000040000fa
:04019c00a4030000b8
:020000040000fa
:0401a000a4030000b4
:020000040000fa
:0401a400a4030000b0
:020000040000fa
:0401a800a4030000ac
:020000040000fa
:0401ac00a4030000a8
:020000040000fa
:0401b000a4030000a4
:020000040000fa
:0401b400a4030000a0
:020000040000fa
:0401b800a40300009c
:020000040000fa
:0401bc00a403000098
:020000040000fa
:0401c000a403000094
:020000040000fa
:0401c400a403000090
:020000040000fa
:0401c800a40300008c
:020000040000fa
:0401cc00a403000088
:020000040000fa
:0401d000a403000084
:020000040000fa
:0401d400a403000080
:020000040000fa
:0401d800a40300007c
:020000040000fa
:0401dc00a403000078
:020000040000fa
:0401e000a403000074
:020000040000fa
:0401e400a403000070
:020000040000fa
:0401e800a40300006c
:020000040000fa
:0401ec00a403000068
:020000040000fa
:0401f000a403000064
:020000040000fa
:0401f400a403000060
:020000040000fa
:0401f800a40300005c
:020000040000fa
:0401fc00a403000058
:020000040000fa
:04020000a403000053
:020000040000fa
:04020400a40300004f
:020000040000fa
:04020800a40300004b
:020000040000fa
:04020c00a403000047
:020000040000fa
:04021000a403000043
:020000040000fa
:04021400a40300003f
:020000040000fa
:04021800a40300003b
:020000040000fa
:04021c00a403000037
:020000040000fa
:04022000a403000033
:020000040000fa
:04022400a40300002f
:020000040000fa
:04022800a40300002b
:020000040000fa
:04022c00a403000027
:020000040000fa
:04023000a403000023
:020000040000fa
:04023400a40300001f
:020000040000fa
:04023800a40300001b
:020000040000fa
:04023c00a403000017
:020000040000fa
:04024000a403000013
:020000040000fa
:04024400a40300000f
:020000040000fa
:04024800a40300000b
:020000040000fa
:04024c00a403000007
:020000040000fa
:04025000a403000003
:020000040000fa
:04025400a4030000ff
:020000040000fa
:04025800a4030000fb
:020000040000fa
:04025c00a4030000f7
:020000040000fa
:04026000a4030000f3
:020000040000fa
:04026400a4030000ef
:020000040000fa
:04026800a4030000eb
:020000040000fa
:04026c00a4030000e7
:020000040000fa
:04027000a4030000e3
:020000040000fa
:04027400a4030000df
:020000040000fa
:04027800a4030000db
:020000040000fa
:04027c00a4030000d7
:020000040000fa
:04028000a4030000d3
:020000040000fa
:100400002f0021000eff27000e01880000000000d1
:10041000000020000000e000020032000001200087
:100420002002880014000700c90007000000e00057
:1004300003003a00203c20000100200002003700a9
:100440000000200001002000810f70000100320038
:100450000f000700000020000000e0000200320052
:100460000000020000000000b803020000000000cd
:100470000040da000000fe00200020000000e00044
:1004800002003200100020009001880000000600e9
:10049000a1028800800478000000eb001f003700f4
:1004a000e284440054a0b4009905ba00e2844400f8
:1004b00054a0b4009906ba00e284440054a0b400e9
:1004c0000006eb00476fde00fd07b200ae018800ba
:1004d000636ce10003003a000ad801000000eb0061
:1004e0000e003700606ce10008003a00004deb00a0
:1004f0000a05e800020039003420ec000af0a000f0
:100500008b05e900f9ff3e00040037006168e10057
:10051000010032000086eb000b00070019c7ba008b
:100520000e04e0001905ba0003003a000a00e000da
:10053000dbff3a0000000600fe07b200ae028800b2
:100540008a047800f5ff37000cd0a300e20f4d00bd
:100550001c00390089027800354dba000a05e80010
:10056000020039003420ec000af0a0008b05e900fd
:100570000f003200254dba000a05e80002003900dc
:100580003420ec000af0a0008b05e90008003200de
:100590000c00e0000600320015cdba000a05e800a4
:1005a000020039003420ec000af0a0008b05e900bd
:1005b0008984e80054a0b4000b00e000e2ff3a0098
:1005c000000006009902ba00055d78008b05e9007d
:1005d000f7ff3200c82ade00055d78008b05e900d0
:1005e000f3ff32000c00e000f1ff320019ddba0029
:1005f000eeff3700809fbe003200f8003400f800a4
:1006000010002000a0018800100020009001880048
:10061000000000000000fa0000808000017d200042
:100620008100680001f0a7008100ea008100e90074
:10063000cf08de00814078000000e80000808800dc
:100640000104e000010032000030ef000080fa00f9
:100650003400f9003200f9004f00be0000400600ef
:100660003200f8003400f800881f780018002000dd
:10067000a8018800180020009801880000000000f0
:100680004f0478000000fa000080fa003400f900fe
:100690003200f900004006003200f8003400f80093
:1006a000881f780018002000a8018800180020008a
:1006b00098018800000000004f0478000000fa0054
:1006c000ffff37003200f8003400f800881f780080
:1006d00018002000a8018800180020009801880058
:1006e000000000004f0478000000fa00ffff370010
:1006f0003200f8003400f800881f7800180020004d
:10070000a80188001800200098018800000000005f
:100710004f0478000000fa00ffff37003200f800b5
:100720003400f800881f780018002000a801880015
:100730001800200098018800000000004f04780095
:100740000000fa00ffff37000040da000000fe0062
:0407500000000500a0
:020000040000fa
:100754000000fa00020007000080fa000000060012
:100764000000fa000080fa00000006000000fa0011
:10077400f7ff07000000eb000080fa00000006000d
:020000040000fa
:1007840000100000020000008000000000000000d3
:020000040000fa
:02000004000af0
:04afe000cfff00009f
:020000040000fa
:02000004000af0
:04afe400ffff00006b
:020000040000fa
:02000004000af0
:04afe8007fff0000e7
:020000040000fa
:02000004000af0
:04afec00b9ff0000a9
:020000040000fa
:02000004000af0
:04aff00078ff0000e6
:020000040000fa
:02000004000af0
:04aff400ffff00005b
:00000001FF
